{
  "transactions": [
    {
      "hash": "0x481896bbaea24eaded3ff3c24e84780284db3c67f26b07a3214ced34c525d05f",
      "transactionType": "CREATE",
      "contractName": "TestNFT",
      "contractAddress": "0xdb4b39d25ddc0707d0805e36421ba1cede4135a3",
      "function": null,
      "arguments": null,
      "transaction": {
        "from": "0xfbcf1f35928ea1f4d0224246f343c297206147d4",
        "gas": "0x66e10",
        "value": "0x0",
        "input": "0x60808060405234610016576104e4908161001b8239f35b5f80fdfe6080604081815260049081361015610015575f80fd5b5f92833560e01c90816301ffc9a7146103d2575080636352211e146103a157806370a0823114610369578063c87b56dd1461025d5763d3fc986414610058575f80fd5b3461024457606036600319011261024457610071610426565b60249182359060443567ffffffffffffffff9384821161025957366023830112156102595781870135958587116102485783519189602094601f19996100be878c601f8401160187610440565b808652368582840101116102445780858893018388013785010152858a52898452848a2080546001600160a01b0319166001600160a01b03909216918217905589526001808452848a2080545f1997929692919088811461023257870190558a5260028452892097825196871161022157505061013b8754610476565b601f81116101db575b5081601f861160011461017b5750849550908492918895610170575b50501b9260031b1c191617905580f35b015193505f80610160565b93929585908116888a52858a20958a905b898383106101c157505050106101a9575b50505050811b01905580f35b01519060f88460031b161c191690555f80808061019d565b85870151895590970196948501948893509081019061018c565b878952828920601f870160051c810191848810610217575b601f0160051c019084905b82811061020c575050610144565b8a81550184906101fe565b90915081906101f3565b634e487b7160e01b8a526041905288fd5b634e487b7160e01b8d5260118c52848dfd5b8280fd5b634e487b7160e01b89526041885288fd5b8780fd5b508234610366576020928360031936011261036257358152600283528181209083835180938390805461028f81610476565b8085529160019180831690811561033f5750600114610302575b5050506102bc9250959392950382610440565b82519382859384528251928382860152825b8481106102ec57505050828201840152601f01601f19168101030190f35b81810183015188820188015287955082016102ce565b86528486209492508591905b8183106103275750889450508201016102bc88806102a9565b8554888401850152948501948794509183019161030e565b925050506102bc94925060ff191682840152151560051b820101869288806102a9565b5080fd5b80fd5b8382346103625760203660031901126103625760209181906001600160a01b03610391610426565b1681526001845220549051908152f35b509034610244576020366003190112610244573582526020828152918190205490516001600160a01b039091168152f35b84908434610244576020366003190112610244573563ffffffff60e01b811680910361024457602092506380ac58cd60e01b8114908115610415575b5015158152f35b635b5e139f60e01b1490508361040e565b600435906001600160a01b038216820361043c57565b5f80fd5b90601f8019910116810190811067ffffffffffffffff82111761046257604052565b634e487b7160e01b5f52604160045260245ffd5b90600182811c921680156104a4575b602083101461049057565b634e487b7160e01b5f52602260045260245ffd5b91607f169161048556fea26469706673582212204c9d3cdf6cde8026612ee28bce133e52ca4ea5f9176d82be894801c6b6f47cf364736f6c63430008140033",
        "nonce": "0x2",
        "chainId": "0x14a34"
      },
      "additionalContracts": [],
      "isFixedGasLimit": false
    },
    {
      "hash": "0x5fc7021dfc1df1f9ddbda7202c1bd3d83db022de9bf844293c2e33655e19ade8",
      "transactionType": "CALL",
      "contractName": "TestNFT",
      "contractAddress": "0xdb4b39d25ddc0707d0805e36421ba1cede4135a3",
      "function": "mint(address,uint256,string)",
      "arguments": [
        "0x22298EB649811317a13dc7C01246E484C5B5615F",
        "1",
        "ipfs://QmTestIkaTenseiReborn001"
      ],
      "transaction": {
        "from": "0xfbcf1f35928ea1f4d0224246f343c297206147d4",
        "to": "0xdb4b39d25ddc0707d0805e36421ba1cede4135a3",
        "gas": "0x201c2",
        "value": "0x0",
        "input": "0xd3fc986400000000000000000000000022298eb649811317a13dc7c01246e484c5b5615f00000000000000000000000000000000000000000000000000000000000000010000000000000000000000000000000000000000000000000000000000000060000000000000000000000000000000000000000000000000000000000000001f697066733a2f2f516d54657374496b6154656e7365695265626f726e30303100",
        "nonce": "0x3",
        "chainId": "0x14a34"
      },
      "additionalContracts": [],
      "isFixedGasLimit": false
    },
    {
      "hash": "0x82ff64421126ae11804c4ebd0c774bccebc4d8fb20fd7836b0fb66b0651a6c43",
      "transactionType": "CALL",
      "contractName": null,
      "contractAddress": "0xc3f5b155ce06c7cbc470b4e8603ab00a65f1fdc7",
      "function": "initiateSeal(address,uint256,address,bytes32)",
      "arguments": [
        "0xDB4B39D25Ddc0707d0805E36421Ba1cede4135A3",
        "1",
        "0x22298EB649811317a13dc7C01246E484C5B5615F",
        "0x383133423ab1786534bf5421bc38b91b7d1a7ba677820069ffe7e5de69fdad99"
      ],
      "transaction": {
        "from": "0xfbcf1f35928ea1f4d0224246f343c297206147d4",
        "to": "0xc3f5b155ce06c7cbc470b4e8603ab00a65f1fdc7",
        "gas": "0x2ad40",
        "value": "0x0",
        "input": "0x9b4a6d45000000000000000000000000db4b39d25ddc0707d0805e36421ba1cede4135a3000000000000000000000000000000000000000000000000000000000000000100000000000000000000000022298eb649811317a13dc7c01246e484c5b5615f383133423ab1786534bf5421bc38b91b7d1a7ba677820069ffe7e5de69fdad99",
        "nonce": "0x4",
        "chainId": "0x14a34"
      },
      "additionalContracts": [],
      "isFixedGasLimit": false
    }
  ],
  "receipts": [
    {
      "status": "0x1",
      "cumulativeGasUsed": "0x1d2abe",
      "logs": [],
      "logsBloom": "0x00000000000000000000000000000000000000000000000000000000000000000000000000000000000000000000000000000000000000000000000000000000000000000000000000000000000000000000000000000000000000000000000000000000000000000000000000000000000000000000000000000000000000000000000000000000000000000000000000000000000000000000000000000000000000000000000000000000000000000000000000000000000000000000000000000000000000000000000000000000000000000000000000000000000000000000000000000000000000000000000000000000000000000000000000000000",
      "type": "0x2",
      "transactionHash": "0x481896bbaea24eaded3ff3c24e84780284db3c67f26b07a3214ced34c525d05f",
      "transactionIndex": "0xa",
      "blockHash": "0x0000000000000000000000000000000000000000000000000000000000000000",
      "blockNumber": "0x245635f",
      "gasUsed": "0x4f234",
      "effectiveGasPrice": "0x5b8d80",
      "blobGasUsed": "0x21f83",
      "from": "0xfbcf1f35928ea1f4d0224246f343c297206147d4",
      "to": null,
      "contractAddress": "0xdb4b39d25ddc0707d0805e36421ba1cede4135a3",
      "daFootprintGasScalar": "0x8b",
      "l1BaseFeeScalar": "0x44d",
      "l1BlobBaseFee": "0x1",
      "l1BlobBaseFeeScalar": "0xa118b",
      "l1Fee": "0x57",
      "l1GasPrice": "0xc",
      "l1GasUsed": "0x3e95"
    },
    {
      "status": "0x1",
      "cumulativeGasUsed": "0x1fa9dc",
      "logs": [],
      "logsBloom": "0x00000000000000000000000000000000000000000000000000000000000000000000000000000000000000000000000000000000000000000000000000000000000000000000000000000000000000000000000000000000000000000000000000000000000000000000000000000000000000000000000000000000000000000000000000000000000000000000000000000000000000000000000000000000000000000000000000000000000000000000000000000000000000000000000000000000000000000000000000000000000000000000000000000000000000000000000000000000000000000000000000000000000000000000000000000000",
      "type": "0x2",
      "transactionHash": "0x5fc7021dfc1df1f9ddbda7202c1bd3d83db022de9bf844293c2e33655e19ade8",
      "transactionIndex": "0xc",
      "blockHash": "0x0000000000000000000000000000000000000000000000000000000000000000",
      "blockNumber": "0x245635f",
      "gasUsed": "0x15f4a",
      "effectiveGasPrice": "0x5b8d80",
      "blobGasUsed": "0x44f5",
      "from": "0xfbcf1f35928ea1f4d0224246f343c297206147d4",
      "to": "0xdb4b39d25ddc0707d0805e36421ba1cede4135a3",
      "contractAddress": null,
      "daFootprintGasScalar": "0x8b",
      "l1BaseFeeScalar": "0x44d",
      "l1BlobBaseFee": "0x1",
      "l1BlobBaseFeeScalar": "0xa118b",
      "l1Fee": "0x57",
      "l1GasPrice": "0xc",
      "l1GasUsed": "0x7f3"
    },
    {
      "status": "0x1",
      "cumulativeGasUsed": "0x2199f9",
      "logs": [
        {
          "address": "0x79a1027a6a159502049f10906d333ec57e95f083",
          "topics": [
            "0x6eb224fb001ed210e379b335e35efe88672a8ce935d981a6896b27ffdf52a3b2",
            "0x000000000000000000000000c3f5b155ce06c7cbc470b4e8603ab00a65f1fdc7"
          ],
          "data": "0x000000000000000000000000000000000000000000000000000000000000000000000000000000000000000000000000000000000000000000000000000000000000000000000000000000000000000000000000000000000000000000000080000000000000000000000000000000000000000000000000000000000000000100000000000000000000000000000000000000000000000000000000000000a2012714000000000000000000000000db4b39d25ddc0707d0805e36421ba1cede4135a3000000000000000000000000000000000000000000000000000000000000000100000000000000000000000022298eb649811317a13dc7c01246e484c5b5615f383133423ab1786534bf5421bc38b91b7d1a7ba677820069ffe7e5de69fdad99697066733a2f2f516d54657374496b6154656e7365695265626f726e303031000000000000000000000000000000000000000000000000000000000000",
          "blockHash": "0x0000000000000000000000000000000000000000000000000000000000000000",
          "blockNumber": "0x245635f",
          "blockTimestamp": "0x699e259e",
          "transactionHash": "0x82ff64421126ae11804c4ebd0c774bccebc4d8fb20fd7836b0fb66b0651a6c43",
          "transactionIndex": "0xd",
          "logIndex": "0x43",
          "removed": false
        },
        {
          "address": "0xc3f5b155ce06c7cbc470b4e8603ab00a65f1fdc7",
          "topics": [
            "0x3dd0a26a0abc2d25f494a532ec4ed9d917ae90017c9656764d1713b92cc31be1",
            "0x000000000000000000000000db4b39d25ddc0707d0805e36421ba1cede4135a3",
            "0x0000000000000000000000000000000000000000000000000000000000000001"
          ],
          "data": "0x00000000000000000000000022298eb649811317a13dc7c01246e484c5b5615f00000000000000000000000000000000000000000000000000000000000000a0383133423ab1786534bf5421bc38b91b7d1a7ba677820069ffe7e5de69fdad9900000000000000000000000000000000000000000000000000000000000000000000000000000000000000000000000000000000000000000000000000002714000000000000000000000000000000000000000000000000000000000000001f697066733a2f2f516d54657374496b6154656e7365695265626f726e30303100",
          "blockHash": "0x0000000000000000000000000000000000000000000000000000000000000000",
          "blockNumber": "0x245635f",
          "blockTimestamp": "0x699e259e",
          "transactionHash": "0x82ff64421126ae11804c4ebd0c774bccebc4d8fb20fd7836b0fb66b0651a6c43",
          "transactionIndex": "0xd",
          "logIndex": "0x44",
          "removed": false
        }
      ],
      "logsBloom": "0x00000000000100000000000000000000000000000000000000000022000000000010000000000000000000000000000000000000000000000000000000040000000000000000000000200000000000000000000000040000000000000000000000000000000000000000000000000000000000400000000000000000000000001000000000080000040000000000000000000000000000000000000000000000000000000400100000100000000100000100040000000000000000000000000000000000100000000000000000000000400400000000000000000000000040000000000000000000000000000000000000000000000000000000000000000000",
      "type": "0x2",
      "transactionHash": "0x82ff64421126ae11804c4ebd0c774bccebc4d8fb20fd7836b0fb66b0651a6c43",
      "transactionIndex": "0xd",
      "blockHash": "0x0000000000000000000000000000000000000000000000000000000000000000",
      "blockNumber": "0x245635f",
      "gasUsed": "0x1f01d",
      "effectiveGasPrice": "0x5b8d80",
      "blobGasUsed": "0x4837",
      "from": "0xfbcf1f35928ea1f4d0224246f343c297206147d4",
      "to": "0xc3f5b155ce06c7cbc470b4e8603ab00a65f1fdc7",
      "contractAddress": null,
      "daFootprintGasScalar": "0x8b",
      "l1BaseFeeScalar": "0x44d",
      "l1BlobBaseFee": "0x1",
      "l1BlobBaseFeeScalar": "0xa118b",
      "l1Fee": "0x57",
      "l1GasPrice": "0xc",
      "l1GasUsed": "0x851"
    }
  ],
  "libraries": [],
  "pending": [],
  "returns": {},
  "timestamp": 1771971997290,
  "chain": 84532,
  "commit": "2e1004e"
}