{
  "transactions": [
    {
      "hash": "0x446c9a0d5a9886840b0df558fd3b7eb683b5f948acced1f9597bd9eeeaf1f3e9",
      "transactionType": "CREATE",
      "contractName": "MiladyTestNFT",
      "contractAddress": "0x55a68f2bfd938d2701d8da4d07dda821e0ba12fe",
      "function": null,
      "arguments": null,
      "transaction": {
        "from": "0xfbcf1f35928ea1f4d0224246f343c297206147d4",
        "gas": "0x923ca",
        "value": "0x0",
        "input": "0x6080604052346100be575f61001481546100c2565b601f8111610094575b5060186b26b4b630b23c9026b0b5b2b960a11b01815560019061004082546100c2565b90601f8211610068575b600c654d494c41445960d01b01835560405161067e90816100fb8239f35b82815282601f60208320930160051c8301925b83811061008957505061004a565b82815501839061007b565b818052601f60208320910160051c8101905b8181106100b3575061001d565b8281556001016100a6565b5f80fd5b90600182811c921680156100f0575b60208310146100dc57565b634e487b7160e01b5f52602260045260245ffd5b91607f16916100d156fe6080604081815260049081361015610015575f80fd5b5f92833560e01c90816301ffc9a7146105255750806306fdde031461047d5780636352211e1461044a57806370a082311461041257806395d89b411461033d578063c87b56dd146102735763d3fc98641461006e575f80fd5b3461025a57606036600319011261025a5761008761062e565b602491823560443567ffffffffffffffff9384821161026f573660238301121561026f57818701359585871161025e5784519189602094601f19996100d3878c601f84011601876105b1565b8086523685828401011161025a5780858893018388013785010152848a5260028452858a2080546001600160a01b0319166001600160a01b03909216918217905589526003835284892080545f19969095909187871461024857600180970190558a5288845289209782519687116102375750506101518754610579565b601f81116101f1575b5081601f86116001146101915750849550908492918895610186575b50501b9260031b1c191617905580f35b015193505f80610176565b93929585908116888a52858a20958a905b898383106101d757505050106101bf575b50505050811b01905580f35b01519060f88460031b161c191690555f8080806101b3565b8587015189559097019694850194889350908101906101a2565b878952828920601f870160051c81019184881061022d575b601f0160051c019084905b82811061022257505061015a565b8a8155018490610214565b9091508190610209565b634e487b7160e01b8a526041905288fd5b634e487b7160e01b8c5260118b52838cfd5b8280fd5b634e487b7160e01b89526041885288fd5b8780fd5b503461025a57602091826003193601126103395780358452825280832091815192848154906102a182610579565b8087529260019280841690811561031557506001146102da575b6102d687876102cc828c03836105b1565b51918291826105e7565b0390f35b9080949750528583205b82841061030257505050826102d6946102cc92820101945f806102bb565b80548685018801529286019281016102e4565b60ff19168887015250505050151560051b83010192506102cc826102d65f806102bb565b8380fd5b83823461040e578160031936011261040e5780519082600180549161036183610579565b808652928281169081156103e6575060011461038a575b5050506102cc826102d69403836105b1565b94508085527fb10e2d527612073b26eecdfd717e6a320cf44b4afac2b0732d9fcbe2b7fa0cf65b8286106103ce575050506102cc8260206102d69582010194610378565b805460208787018101919091529095019481016103b1565b6102d69750869350602092506102cc94915060ff191682840152151560051b82010194610378565b5080fd5b83823461040e57602036600319011261040e5760209181906001600160a01b0361043a61062e565b1681526003845220549051908152f35b50903461025a57602036600319011261025a5735825260026020908152918190205490516001600160a01b039091168152f35b83823461040e578160031936011261040e5780519082805461049e81610579565b808552916001918083169081156103e657506001146104c9575050506102cc826102d69403836105b1565b80809650527f290decd9548b62a8d60345a988386fc84ba6bc95484008f6362f93160ef3e5635b82861061050d575050506102cc8260206102d69582010194610378565b805460208787018101919091529095019481016104f0565b8490843461025a57602036600319011261025a573563ffffffff60e01b811680910361025a57602092506380ac58cd60e01b8114908115610568575b5015158152f35b635b5e139f60e01b14905083610561565b90600182811c921680156105a7575b602083101461059357565b634e487b7160e01b5f52602260045260245ffd5b91607f1691610588565b90601f8019910116810190811067ffffffffffffffff8211176105d357604052565b634e487b7160e01b5f52604160045260245ffd5b602080825282518183018190529093925f5b82811061061a57505060409293505f838284010152601f8019910116010190565b8181018601518482016040015285016105f9565b600435906001600160a01b038216820361064457565b5f80fdfea2646970667358221220ded850d5579dea7c34f657acca9429188239789c16e7e39d402875112dd88aa964736f6c63430008140033",
        "nonce": "0xb",
        "chainId": "0x14a34"
      },
      "additionalContracts": [],
      "isFixedGasLimit": false
    },
    {
      "hash": "0xc557d35bab7a8f1811e4b1ee2b0f0fc4e79a6df2c1373df1fa29c32b346f3d21",
      "transactionType": "CALL",
      "contractName": "MiladyTestNFT",
      "contractAddress": "0x55a68f2bfd938d2701d8da4d07dda821e0ba12fe",
      "function": "mint(address,uint256,string)",
      "arguments": [
        "0xfBCF1F35928ea1F4d0224246f343C297206147d4",
        "1",
        "https://www.miladymaker.net/milady/json/1"
      ],
      "transaction": {
        "from": "0xfbcf1f35928ea1f4d0224246f343c297206147d4",
        "to": "0x55a68f2bfd938d2701d8da4d07dda821e0ba12fe",
        "gas": "0x2d666",
        "value": "0x0",
        "input": "0xd3fc9864000000000000000000000000fbcf1f35928ea1f4d0224246f343c297206147d400000000000000000000000000000000000000000000000000000000000000010000000000000000000000000000000000000000000000000000000000000060000000000000000000000000000000000000000000000000000000000000002968747470733a2f2f7777772e6d696c6164796d616b65722e6e65742f6d696c6164792f6a736f6e2f310000000000000000000000000000000000000000000000",
        "nonce": "0xc",
        "chainId": "0x14a34"
      },
      "additionalContracts": [],
      "isFixedGasLimit": false
    },
    {
      "hash": "0x11ab9bb5e4528aa1ab9cf63cee4b3e30f71030a2195fff9e503f7970e78a2d29",
      "transactionType": "CALL",
      "contractName": null,
      "contractAddress": "0xc3f5b155ce06c7cbc470b4e8603ab00a65f1fdc7",
      "function": "initiateSeal(address,uint256,address,bytes32)",
      "arguments": [
        "0x55a68f2Bfd938D2701d8DA4d07DDA821E0ba12fE",
        "1",
        "0xfBCF1F35928ea1F4d0224246f343C297206147d4",
        "0x383133423ab1786534bf5421bc38b91b7d1a7ba677820069ffe7e5de69fdad99"
      ],
      "transaction": {
        "from": "0xfbcf1f35928ea1f4d0224246f343c297206147d4",
        "to": "0xc3f5b155ce06c7cbc470b4e8603ab00a65f1fdc7",
        "gas": "0x20fd5",
        "value": "0x0",
        "input": "0x9b4a6d4500000000000000000000000055a68f2bfd938d2701d8da4d07dda821e0ba12fe0000000000000000000000000000000000000000000000000000000000000001000000000000000000000000fbcf1f35928ea1f4d0224246f343c297206147d4383133423ab1786534bf5421bc38b91b7d1a7ba677820069ffe7e5de69fdad99",
        "nonce": "0xd",
        "chainId": "0x14a34"
      },
      "additionalContracts": [],
      "isFixedGasLimit": false
    }
  ],
  "receipts": [
    {
      "status": "0x1",
      "cumulativeGasUsed": "0x434ed2",
      "logs": [],
      "logsBloom": "0x00000000000000000000000000000000000000000000000000000000000000000000000000000000000000000000000000000000000000000000000000000000000000000000000000000000000000000000000000000000000000000000000000000000000000000000000000000000000000000000000000000000000000000000000000000000000000000000000000000000000000000000000000000000000000000000000000000000000000000000000000000000000000000000000000000000000000000000000000000000000000000000000000000000000000000000000000000000000000000000000000000000000000000000000000000000",
      "type": "0x2",
      "transactionHash": "0x446c9a0d5a9886840b0df558fd3b7eb683b5f948acced1f9597bd9eeeaf1f3e9",
      "transactionIndex": "0x6",
      "blockHash": "0x0000000000000000000000000000000000000000000000000000000000000000",
      "blockNumber": "0x245da13",
      "gasUsed": "0x707d7",
      "effectiveGasPrice": "0x5b8d80",
      "blobGasUsed": "0x2f003",
      "from": "0xfbcf1f35928ea1f4d0224246f343c297206147d4",
      "to": null,
      "contractAddress": "0x55a68f2bfd938d2701d8da4d07dda821e0ba12fe",
      "daFootprintGasScalar": "0x8b",
      "l1BaseFeeScalar": "0x44d",
      "l1BlobBaseFee": "0x1d1",
      "l1BlobBaseFeeScalar": "0xa118b",
      "l1Fee": "0xabb4",
      "l1GasPrice": "0x1d6f",
      "l1GasUsed": "0x5695"
    },
    {
      "status": "0x1",
      "cumulativeGasUsed": "0x455cb9",
      "logs": [],
      "logsBloom": "0x00000000000000000000000000000000000000000000000000000000000000000000000000000000000000000000000000000000000000000000000000000000000000000000000000000000000000000000000000000000000000000000000000000000000000000000000000000000000000000000000000000000000000000000000000000000000000000000000000000000000000000000000000000000000000000000000000000000000000000000000000000000000000000000000000000000000000000000000000000000000000000000000000000000000000000000000000000000000000000000000000000000000000000000000000000000",
      "type": "0x2",
      "transactionHash": "0x11ab9bb5e4528aa1ab9cf63cee4b3e30f71030a2195fff9e503f7970e78a2d29",
      "transactionIndex": "0x7",
      "blockHash": "0x0000000000000000000000000000000000000000000000000000000000000000",
      "blockNumber": "0x245da13",
      "gasUsed": "0x20de7",
      "effectiveGasPrice": "0x5b8d80",
      "blobGasUsed": "0x49d8",
      "from": "0xfbcf1f35928ea1f4d0224246f343c297206147d4",
      "to": "0x55a68f2bfd938d2701d8da4d07dda821e0ba12fe",
      "contractAddress": null,
      "daFootprintGasScalar": "0x8b",
      "l1BaseFeeScalar": "0x44d",
      "l1BlobBaseFee": "0x1d1",
      "l1BlobBaseFeeScalar": "0xa118b",
      "l1Fee": "0xabb4",
      "l1GasPrice": "0x1d6f",
      "l1GasUsed": "0x886"
    },
    {
      "status": "0x1",
      "cumulativeGasUsed": "0x46dade",
      "logs": [
        {
          "address": "0x79a1027a6a159502049f10906d333ec57e95f083",
          "topics": [
            "0x6eb224fb001ed210e379b335e35efe88672a8ce935d981a6896b27ffdf52a3b2",
            "0x000000000000000000000000c3f5b155ce06c7cbc470b4e8603ab00a65f1fdc7"
          ],
          "data": "0x000000000000000000000000000000000000000000000000000000000000000300000000000000000000000000000000000000000000000000000000000000030000000000000000000000000000000000000000000000000000000000000080000000000000000000000000000000000000000000000000000000000000000100000000000000000000000000000000000000000000000000000000000000ac01271400000000000000000000000055a68f2bfd938d2701d8da4d07dda821e0ba12fe0000000000000000000000000000000000000000000000000000000000000001000000000000000000000000fbcf1f35928ea1f4d0224246f343c297206147d4383133423ab1786534bf5421bc38b91b7d1a7ba677820069ffe7e5de69fdad9968747470733a2f2f7777772e6d696c6164796d616b65722e6e65742f6d696c6164792f6a736f6e2f310000000000000000000000000000000000000000",
          "blockHash": "0x0000000000000000000000000000000000000000000000000000000000000000",
          "blockNumber": "0x245da13",
          "blockTimestamp": "0x699f1306",
          "transactionHash": "0xc557d35bab7a8f1811e4b1ee2b0f0fc4e79a6df2c1373df1fa29c32b346f3d21",
          "transactionIndex": "0x8",
          "logIndex": "0x50",
          "removed": false
        },
        {
          "address": "0xc3f5b155ce06c7cbc470b4e8603ab00a65f1fdc7",
          "topics": [
            "0x3dd0a26a0abc2d25f494a532ec4ed9d917ae90017c9656764d1713b92cc31be1",
            "0x00000000000000000000000055a68f2bfd938d2701d8da4d07dda821e0ba12fe",
            "0x0000000000000000000000000000000000000000000000000000000000000001"
          ],
          "data": "0x000000000000000000000000fbcf1f35928ea1f4d0224246f343c297206147d400000000000000000000000000000000000000000000000000000000000000a0383133423ab1786534bf5421bc38b91b7d1a7ba677820069ffe7e5de69fdad9900000000000000000000000000000000000000000000000000000000000000030000000000000000000000000000000000000000000000000000000000002714000000000000000000000000000000000000000000000000000000000000002968747470733a2f2f7777772e6d696c6164796d616b65722e6e65742f6d696c6164792f6a736f6e2f310000000000000000000000000000000000000000000000",
          "blockHash": "0x0000000000000000000000000000000000000000000000000000000000000000",
          "blockNumber": "0x245da13",
          "blockTimestamp": "0x699f1306",
          "transactionHash": "0xc557d35bab7a8f1811e4b1ee2b0f0fc4e79a6df2c1373df1fa29c32b346f3d21",
          "transactionIndex": "0x8",
          "logIndex": "0x51",
          "removed": false
        }
      ],
      "logsBloom": "0x00000000000100000000000000000000000000000000000000000022000000000010000000000000000000000000000000000000000000000000000000040000000400000000000000200000000000000000000000040000000000000000000000000000000000000000000000000000000000400000000000000000000000000000000000080000000000000000000000000000000000000000000000000000000000000400100000000000000100000100040000000000000000000000000000000000100000000000000000000000400400080000000000000000000040100000000000000000000000000000000000000000000000000000000000000000",
      "type": "0x2",
      "transactionHash": "0xc557d35bab7a8f1811e4b1ee2b0f0fc4e79a6df2c1373df1fa29c32b346f3d21",
      "transactionIndex": "0x8",
      "blockHash": "0x0000000000000000000000000000000000000000000000000000000000000000",
      "blockNumber": "0x245da13",
      "gasUsed": "0x17e25",
      "effectiveGasPrice": "0x5b8d80",
      "blobGasUsed": "0x4837",
      "from": "0xfbcf1f35928ea1f4d0224246f343c297206147d4",
      "to": "0xc3f5b155ce06c7cbc470b4e8603ab00a65f1fdc7",
      "contractAddress": null,
      "daFootprintGasScalar": "0x8b",
      "l1BaseFeeScalar": "0x44d",
      "l1BlobBaseFee": "0x1d1",
      "l1BlobBaseFeeScalar": "0xa118b",
      "l1Fee": "0xabb4",
      "l1GasPrice": "0x1d6f",
      "l1GasUsed": "0x851"
    }
  ],
  "libraries": [],
  "pending": [],
  "returns": {},
  "timestamp": 1772032772560,
  "chain": 84532,
  "commit": "88da744"
}